:1000000012C019C018C017C016C015C014C013C044
:1000100012C011C010C00FC00EC00DC00CC00BC06C
:100020000AC009C008C011241FBECFE5D4E0DEBF5E
:10003000CDBF15D126C1E4CF3E9A86B1876886B977
:100040000895B89A81B38F6081BBBB9AA098089538
:1000500085B58C6685BD089597B1907F8F70892B8B
:1000600087B9369A3699FECF84B195B10895C09A72
:100070002FEF8FE79DE0215080409040E1F700C0D6
:100080000000C0982FEF8FE794E02150804090400F
:10009000E1F700C00000C09A2FEF8FE79DE02150EC
:1000A00080409040E1F700C00000C0982FEF8FE73C
:1000B0009DE0215080409040E1F700C00000C09AD0
:1000C0002FEF8FE794E0215080409040E1F700C08F
:1000D0000000C0982FEF8FE79DE0215080409040B6
:1000E000E1F700C00000C09A2FEF8FE79DE021509C
:1000F00080409040E1F700C00000C0982FEF8FE7EC
:1001000094E0215080409040E1F700C00000C09A88
:100110002FEF8FE79DE0215080409040E1F700C035
:100120000000C0982FEF8FE794E02150804090406E
:10013000E1F700C00000C09A2FEF8FE79DE021504B
:1001400080409040E1F700C00000C0982FEF8FE79B
:100150009DE0215080409040E1F700C00000C09A2F
:100160002FEF8FE794E0215080409040E1F700C0EE
:100170000000C0982FEF8FE794E02150804090401E
:10018000E1F700C00000C09A2FEF8FE79DE02150FB
:1001900080409040E1F700C00000C0982FEF8FE74B
:1001A00094E0215080409040E1F700C00000C09AE8
:1001B0002FEF8FE79DE0215080409040E1F700C095
:1001C0000000C0982FEF8FE79DE0215080409040C5
:1001D000E1F700C0000008958FEF83BD48DFC09AAB
:1001E000909A919829E989E195E3215080409040C7
:1001F000E1F7000090982FEF8FE793E421508040C3
:100200009040E1F700C00000939A2CEC8CEE96E24F
:10021000215080409040E1F700C093982FEF8FEF7E
:1002200099E5215080409040E1F700C00000919A8C
:1002300090982FEF8FEF98E0215080409040E1F7A9
:1002400000C000009198C09813BC2FEF8FEF9CE284
:10025000215080409040E1F700C000000895ECDE9E
:10026000F0DEF6DE80E0F8DE0A9708F4B5DF2FEF67
:100270008FE794E0215080409040E1F700C00000FB
:06028000F1CFF894FFCF5E
:00000001FF
