:1000000012C019C018C017C016C015C014C013C044
:1000100012C011C010C00FC00EC00DC00CC00BC06C
:100020000AC009C008C011241FBECFE5D4E0DEBF5E
:10003000CDBF59D068C0E4CF3E9A86B1876886B9F3
:100040000895B89A81B38F6081BBA098089597B145
:10005000907F8F70892B87B9369A3699FECF84B1FD
:1000600095B10895C09A909A91982FEF8FEF9CE2E6
:10007000215080409040E1F700C0000090982FEFA1
:100080008FEF91E1215080409040E1F700C00000E7
:10009000929A2FEF8FE793E4215080409040E1F750
:1000A00000C0000092982FEF8FE79DE02150804024
:1000B0009040E1F700C00000919A90982FEF8FEFE9
:1000C0009CE2215080409040E1F700C000009198F0
:1000D000C0982FEF8FE796E1215080409040E1F7E4
:1000E00000C000000895A8DFACDF80E0B0DF8436F8
:1000F000910508F4B7DF26E686EE90E021508040B7
:0A0100009040E1F7F2CFF894FFCF32
:00000001FF
